{
  "contractName": "CryptoPrediction",
  "abi": [
    {
      "inputs": [
        {
          "internalType": "uint256",
          "name": "",
          "type": "uint256"
        }
      ],
      "name": "predictions",
      "outputs": [
        {
          "internalType": "string",
          "name": "cryptoSymbol",
          "type": "string"
        },
        {
          "internalType": "uint256",
          "name": "predictionDate",
          "type": "uint256"
        },
        {
          "internalType": "uint256",
          "name": "predictedValue",
          "type": "uint256"
        }
      ],
      "stateMutability": "view",
      "type": "function",
      "constant": true
    },
    {
      "inputs": [
        {
          "internalType": "string",
          "name": "cryptoSymbol",
          "type": "string"
        },
        {
          "internalType": "uint256",
          "name": "predictionDate",
          "type": "uint256"
        },
        {
          "internalType": "uint256",
          "name": "predictedValue",
          "type": "uint256"
        }
      ],
      "name": "storePrediction",
      "outputs": [],
      "stateMutability": "nonpayable",
      "type": "function"
    },
    {
      "inputs": [
        {
          "internalType": "uint256",
          "name": "index",
          "type": "uint256"
        }
      ],
      "name": "getPrediction",
      "outputs": [
        {
          "internalType": "string",
          "name": "",
          "type": "string"
        },
        {
          "internalType": "uint256",
          "name": "",
          "type": "uint256"
        },
        {
          "internalType": "uint256",
          "name": "",
          "type": "uint256"
        }
      ],
      "stateMutability": "view",
      "type": "function",
      "constant": true
    },
    {
      "inputs": [],
      "name": "getPredictionCount",
      "outputs": [
        {
          "internalType": "uint256",
          "name": "",
          "type": "uint256"
        }
      ],
      "stateMutability": "view",
      "type": "function",
      "constant": true
    }
  ],
  "bytecode": "0x608060405234801561000f575f80fd5b506109328061001d5f395ff3fe608060405234801561000f575f80fd5b5060043610610049575f3560e01c80624fbbb01461004d578063016680961461007f578063eea658051461009d578063fe83bece146100b9575b5f80fd5b61006760048036038101906100629190610355565b6100eb565b60405161007693929190610419565b60405180910390f35b6100876101a5565b6040516100949190610455565b60405180910390f35b6100b760048036038101906100b2919061059a565b6101b0565b005b6100d360048036038101906100ce9190610355565b610221565b6040516100e293929190610419565b60405180910390f35b5f81815481106100f9575f80fd5b905f5260205f2090600302015f91509050805f01805461011890610633565b80601f016020809104026020016040519081016040528092919081815260200182805461014490610633565b801561018f5780601f106101665761010080835404028352916020019161018f565b820191905f5260205f20905b81548152906001019060200180831161017257829003601f168201915b5050505050908060010154908060020154905083565b5f8080549050905090565b5f604051806060016040528085815260200184815260200183815250908060018154018082558091505060019003905f5260205f2090600302015f909190919091505f820151815f0190816102059190610800565b5060208201518160010155604082015181600201555050505050565b60605f805f808581548110610239576102386108cf565b5b905f5260205f2090600302016040518060600160405290815f8201805461025f90610633565b80601f016020809104026020016040519081016040528092919081815260200182805461028b90610633565b80156102d65780601f106102ad576101008083540402835291602001916102d6565b820191905f5260205f20905b8154815290600101906020018083116102b957829003601f168201915b50505050508152602001600182015481526020016002820154815250509050805f015181602001518260400151935093509350509193909250565b5f604051905090565b5f80fd5b5f80fd5b5f819050919050565b61033481610322565b811461033e575f80fd5b50565b5f8135905061034f8161032b565b92915050565b5f6020828403121561036a5761036961031a565b5b5f61037784828501610341565b91505092915050565b5f81519050919050565b5f82825260208201905092915050565b5f5b838110156103b757808201518184015260208101905061039c565b5f8484015250505050565b5f601f19601f8301169050919050565b5f6103dc82610380565b6103e6818561038a565b93506103f681856020860161039a565b6103ff816103c2565b840191505092915050565b61041381610322565b82525050565b5f6060820190508181035f83015261043181866103d2565b9050610440602083018561040a565b61044d604083018461040a565b949350505050565b5f6020820190506104685f83018461040a565b92915050565b5f80fd5b5f80fd5b7f4e487b71000000000000000000000000000000000000000000000000000000005f52604160045260245ffd5b6104ac826103c2565b810181811067ffffffffffffffff821117156104cb576104ca610476565b5b80604052505050565b5f6104dd610311565b90506104e982826104a3565b919050565b5f67ffffffffffffffff82111561050857610507610476565b5b610511826103c2565b9050602081019050919050565b828183375f83830152505050565b5f61053e610539846104ee565b6104d4565b90508281526020810184848401111561055a57610559610472565b5b61056584828561051e565b509392505050565b5f82601f8301126105815761058061046e565b5b813561059184826020860161052c565b91505092915050565b5f805f606084860312156105b1576105b061031a565b5b5f84013567ffffffffffffffff8111156105ce576105cd61031e565b5b6105da8682870161056d565b93505060206105eb86828701610341565b92505060406105fc86828701610341565b9150509250925092565b7f4e487b71000000000000000000000000000000000000000000000000000000005f52602260045260245ffd5b5f600282049050600182168061064a57607f821691505b60208210810361065d5761065c610606565b5b50919050565b5f819050815f5260205f209050919050565b5f6020601f8301049050919050565b5f82821b905092915050565b5f600883026106bf7fffffffffffffffffffffffffffffffffffffffffffffffffffffffffffffffff82610684565b6106c98683610684565b95508019841693508086168417925050509392505050565b5f819050919050565b5f6107046106ff6106fa84610322565b6106e1565b610322565b9050919050565b5f819050919050565b61071d836106ea565b6107316107298261070b565b848454610690565b825550505050565b5f90565b610745610739565b610750818484610714565b505050565b5b81811015610773576107685f8261073d565b600181019050610756565b5050565b601f8211156107b85761078981610663565b61079284610675565b810160208510156107a1578190505b6107b56107ad85610675565b830182610755565b50505b505050565b5f82821c905092915050565b5f6107d85f19846008026107bd565b1980831691505092915050565b5f6107f083836107c9565b9150826002028217905092915050565b61080982610380565b67ffffffffffffffff81111561082257610821610476565b5b61082c8254610633565b610837828285610777565b5f60209050601f831160018114610868575f8415610856578287015190505b61086085826107e5565b8655506108c7565b601f19841661087686610663565b5f5b8281101561089d57848901518255600182019150602085019450602081019050610878565b868310156108ba57848901516108b6601f8916826107c9565b8355505b6001600288020188555050505b505050505050565b7f4e487b71000000000000000000000000000000000000000000000000000000005f52603260045260245ffdfea2646970667358221220ba0ac31f789f6769ba865b70d2189ebcf38c567dfec6b9fbeee23753a881f51364736f6c63430008150033",
  "immutableReferences": {},
  "source": "pragma solidity ^0.8.0;\r\n\r\ncontract CryptoPrediction {\r\n    struct Prediction {\r\n        string cryptoSymbol;\r\n        uint256 predictionDate;\r\n        uint256 predictedValue;\r\n    }\r\n\r\n    Prediction[] public predictions;\r\n\r\n    function storePrediction(string memory cryptoSymbol, uint256 predictionDate, uint256 predictedValue) public {\r\n        predictions.push(Prediction(cryptoSymbol, predictionDate, predictedValue));\r\n    }\r\n\r\n    function getPrediction(uint256 index) public view returns (string memory, uint256, uint256) {\r\n        Prediction memory prediction = predictions[index];\r\n        return (prediction.cryptoSymbol, prediction.predictionDate, prediction.predictedValue);\r\n    }\r\n\r\n    function getPredictionCount() public view returns (uint256) {\r\n        return predictions.length;\r\n    }\r\n}\r\n",
  "sourcePath": "C:\\Users\\abhis\\OneDrive\\Desktop\\crypto-price-prediction\\blockchain\\contracts\\cryptoprediction.sol",
  "compiler": {
    "name": "solc",
    "version": "0.8.21+commit.d9974bed.Emscripten.clang"
  },
  "schemaVersion": "3.4.16",
  "updatedAt": "2025-01-18T15:46:42.320Z",
  "networkType": "ethereum",
  "devdoc": {
    "kind": "dev",
    "methods": {},
    "version": 1
  },
  "userdoc": {
    "kind": "user",
    "methods": {},
    "version": 1
  }
}